:100000000C942A000C943F000C943F000C943F0089
:100010000C943F000C943F000C943F000C943F0064
:100020000C943F000C943F000C943F000C943F0054
:100030000C943F000C943F000C943F000C943F0044
:100040000C943F000C943F000C943F000C943F0034
:100050000C943F0011241FBECFE5D8E0DEBFCDBF1A
:1000600010E0A0E6B0E0E6EBF1E002C005900D92F2
:10007000AC36B107D9F70E94C0000C94D9000C949B
:100080000000C39A28B3982F907F2F70922B98BBB3
:10009000C3980000C39A98B38295807F9F70892B84
:1000A00088BBC39880E18A95F1F700C00895C29893
:1000B00081E00E944100C29A87E99AE30197F1F733
:1000C00000C0000008958CEF87BB83ED90E301979B
:1000D000F1F700C00000C29883E30E94410081EE66
:1000E00094E00197F1F700C0000082E30E94410014
:1000F00081EE94E00197F1F700C0000088E20E94D1
:1001000041008CE00E94410086E00E9441000E9474
:100110005700C29A0895C2988295880F880F807CF4
:10012000860F80680E944100C29A81EE94E0019798
:10013000F1F700C000000895FF920F931F93CF9333
:10014000DF93F82EC92FD62F65E080E00E948B0048
:100150000F2D1C2FC0E0CD1734F0DF91CF911F91F0
:100160000F91FF900895C03121F460E081E00E947A
:100170008B00F80181918F010E944100CF5FEBCF8E
:10018000CDB7DEB72B970FB6F894DEBF0FBECDBF4D
:100190008BE0E0E6F0E0DE01119601900D928A9589
:1001A000E1F70E9463006BE0CE0101960E949C0083
:0601B000FFCFF894FFCF21
:0C01B60048656C6C6F20576F726C640021
:00000001FF
